{
  "contractName": "CouponTokenSale",
  "abi": [
    {
      "constant": true,
      "inputs": [],
      "name": "MAX_SALE_LOTS",
      "outputs": [
        {
          "name": "",
          "type": "uint8"
        }
      ],
      "payable": false,
      "stateMutability": "view",
      "type": "function"
    },
    {
      "constant": true,
      "inputs": [],
      "name": "MAX_CAP_FOR_CONTIGENCY",
      "outputs": [
        {
          "name": "",
          "type": "uint256"
        }
      ],
      "payable": false,
      "stateMutability": "view",
      "type": "function"
    },
    {
      "constant": true,
      "inputs": [],
      "name": "SALE_LOT1",
      "outputs": [
        {
          "name": "",
          "type": "uint8"
        }
      ],
      "payable": false,
      "stateMutability": "view",
      "type": "function"
    },
    {
      "constant": true,
      "inputs": [],
      "name": "decimals",
      "outputs": [
        {
          "name": "",
          "type": "uint8"
        }
      ],
      "payable": false,
      "stateMutability": "view",
      "type": "function"
    },
    {
      "constant": true,
      "inputs": [],
      "name": "endTime",
      "outputs": [
        {
          "name": "",
          "type": "uint256"
        }
      ],
      "payable": false,
      "stateMutability": "view",
      "type": "function"
    },
    {
      "constant": false,
      "inputs": [],
      "name": "unpause",
      "outputs": [],
      "payable": false,
      "stateMutability": "nonpayable",
      "type": "function"
    },
    {
      "constant": true,
      "inputs": [],
      "name": "MAX_CAP_FOR_FOUNDERS",
      "outputs": [
        {
          "name": "",
          "type": "uint256"
        }
      ],
      "payable": false,
      "stateMutability": "view",
      "type": "function"
    },
    {
      "constant": true,
      "inputs": [],
      "name": "salesEnded",
      "outputs": [
        {
          "name": "",
          "type": "bool"
        }
      ],
      "payable": false,
      "stateMutability": "view",
      "type": "function"
    },
    {
      "constant": true,
      "inputs": [],
      "name": "couponToken",
      "outputs": [
        {
          "name": "",
          "type": "address"
        }
      ],
      "payable": false,
      "stateMutability": "view",
      "type": "function"
    },
    {
      "constant": true,
      "inputs": [],
      "name": "totalWeiRaised",
      "outputs": [
        {
          "name": "",
          "type": "uint256"
        }
      ],
      "payable": false,
      "stateMutability": "view",
      "type": "function"
    },
    {
      "constant": true,
      "inputs": [
        {
          "name": "",
          "type": "uint8"
        }
      ],
      "name": "lotsInfo",
      "outputs": [
        {
          "name": "totalTokens",
          "type": "uint256"
        },
        {
          "name": "rateInCents",
          "type": "uint256"
        },
        {
          "name": "poolBonus",
          "type": "uint256"
        },
        {
          "name": "soldTokens",
          "type": "uint256"
        },
        {
          "name": "totalCentsRaised",
          "type": "uint256"
        }
      ],
      "payable": false,
      "stateMutability": "view",
      "type": "function"
    },
    {
      "constant": true,
      "inputs": [],
      "name": "SALE_LOT2",
      "outputs": [
        {
          "name": "",
          "type": "uint8"
        }
      ],
      "payable": false,
      "stateMutability": "view",
      "type": "function"
    },
    {
      "constant": true,
      "inputs": [],
      "name": "paused",
      "outputs": [
        {
          "name": "",
          "type": "bool"
        }
      ],
      "payable": false,
      "stateMutability": "view",
      "type": "function"
    },
    {
      "constant": true,
      "inputs": [],
      "name": "startTime",
      "outputs": [
        {
          "name": "",
          "type": "uint256"
        }
      ],
      "payable": false,
      "stateMutability": "view",
      "type": "function"
    },
    {
      "constant": false,
      "inputs": [],
      "name": "pause",
      "outputs": [],
      "payable": false,
      "stateMutability": "nonpayable",
      "type": "function"
    },
    {
      "constant": true,
      "inputs": [],
      "name": "SALE_LOT4",
      "outputs": [
        {
          "name": "",
          "type": "uint8"
        }
      ],
      "payable": false,
      "stateMutability": "view",
      "type": "function"
    },
    {
      "constant": true,
      "inputs": [],
      "name": "owner",
      "outputs": [
        {
          "name": "",
          "type": "address"
        }
      ],
      "payable": false,
      "stateMutability": "view",
      "type": "function"
    },
    {
      "constant": true,
      "inputs": [],
      "name": "currLot",
      "outputs": [
        {
          "name": "",
          "type": "uint8"
        }
      ],
      "payable": false,
      "stateMutability": "view",
      "type": "function"
    },
    {
      "constant": true,
      "inputs": [],
      "name": "stage",
      "outputs": [
        {
          "name": "",
          "type": "uint8"
        }
      ],
      "payable": false,
      "stateMutability": "view",
      "type": "function"
    },
    {
      "constant": true,
      "inputs": [],
      "name": "startTimeOfSaleLot4",
      "outputs": [
        {
          "name": "",
          "type": "uint256"
        }
      ],
      "payable": false,
      "stateMutability": "view",
      "type": "function"
    },
    {
      "constant": true,
      "inputs": [
        {
          "name": "",
          "type": "address"
        }
      ],
      "name": "founders",
      "outputs": [
        {
          "name": "",
          "type": "uint256"
        }
      ],
      "payable": false,
      "stateMutability": "view",
      "type": "function"
    },
    {
      "constant": true,
      "inputs": [],
      "name": "MAX_CAP_FOR_TREASURY",
      "outputs": [
        {
          "name": "",
          "type": "uint256"
        }
      ],
      "payable": false,
      "stateMutability": "view",
      "type": "function"
    },
    {
      "constant": false,
      "inputs": [
        {
          "name": "newOwner",
          "type": "address"
        }
      ],
      "name": "transferOwnership",
      "outputs": [],
      "payable": false,
      "stateMutability": "nonpayable",
      "type": "function"
    },
    {
      "constant": true,
      "inputs": [],
      "name": "SALE_LOT3",
      "outputs": [
        {
          "name": "",
          "type": "uint8"
        }
      ],
      "payable": false,
      "stateMutability": "view",
      "type": "function"
    },
    {
      "inputs": [
        {
          "name": "couponTokenAddress",
          "type": "address"
        }
      ],
      "payable": false,
      "stateMutability": "nonpayable",
      "type": "constructor"
    },
    {
      "payable": true,
      "stateMutability": "payable",
      "type": "fallback"
    },
    {
      "anonymous": false,
      "inputs": [
        {
          "indexed": false,
          "name": "startTime",
          "type": "uint256"
        }
      ],
      "name": "SaleStarted",
      "type": "event"
    },
    {
      "anonymous": false,
      "inputs": [
        {
          "indexed": false,
          "name": "endTime",
          "type": "uint256"
        },
        {
          "indexed": false,
          "name": "totalWeiRaised",
          "type": "uint256"
        }
      ],
      "name": "SaleEnded",
      "type": "event"
    },
    {
      "anonymous": false,
      "inputs": [
        {
          "indexed": true,
          "name": "purchaser",
          "type": "address"
        },
        {
          "indexed": false,
          "name": "value",
          "type": "uint256"
        },
        {
          "indexed": false,
          "name": "amount",
          "type": "uint256"
        }
      ],
      "name": "TokenPurchase",
      "type": "event"
    },
    {
      "anonymous": false,
      "inputs": [],
      "name": "Pause",
      "type": "event"
    },
    {
      "anonymous": false,
      "inputs": [],
      "name": "Unpause",
      "type": "event"
    },
    {
      "anonymous": false,
      "inputs": [
        {
          "indexed": true,
          "name": "previousOwner",
          "type": "address"
        },
        {
          "indexed": true,
          "name": "newOwner",
          "type": "address"
        }
      ],
      "name": "OwnershipTransferred",
      "type": "event"
    },
    {
      "constant": false,
      "inputs": [],
      "name": "withdraw",
      "outputs": [],
      "payable": false,
      "stateMutability": "nonpayable",
      "type": "function"
    },
    {
      "constant": false,
      "inputs": [
        {
          "name": "_fundAddr",
          "type": "address"
        },
        {
          "name": "_treasuryAddr",
          "type": "address"
        },
        {
          "name": "_contigencyAddr",
          "type": "address"
        }
      ],
      "name": "setupContract",
      "outputs": [],
      "payable": false,
      "stateMutability": "nonpayable",
      "type": "function"
    },
    {
      "constant": false,
      "inputs": [
        {
          "name": "rate",
          "type": "uint256"
        }
      ],
      "name": "setEth2Cents",
      "outputs": [],
      "payable": false,
      "stateMutability": "nonpayable",
      "type": "function"
    },
    {
      "constant": false,
      "inputs": [
        {
          "name": "Users",
          "type": "address[]"
        },
        {
          "name": "Tokens",
          "type": "uint256[]"
        }
      ],
      "name": "addFounders",
      "outputs": [],
      "payable": false,
      "stateMutability": "nonpayable",
      "type": "function"
    },
    {
      "constant": false,
      "inputs": [],
      "name": "startSale",
      "outputs": [],
      "payable": false,
      "stateMutability": "nonpayable",
      "type": "function"
    },
    {
      "constant": false,
      "inputs": [],
      "name": "endSale",
      "outputs": [],
      "payable": false,
      "stateMutability": "nonpayable",
      "type": "function"
    },
    {
      "constant": false,
      "inputs": [],
      "name": "buy",
      "outputs": [
        {
          "name": "",
          "type": "bool"
        }
      ],
      "payable": true,
      "stateMutability": "payable",
      "type": "function"
    },
    {
      "constant": false,
      "inputs": [
        {
          "name": "toUser",
          "type": "address"
        },
        {
          "name": "inCents",
          "type": "uint256"
        }
      ],
      "name": "buyFiat",
      "outputs": [
        {
          "name": "",
          "type": "bool"
        }
      ],
      "payable": false,
      "stateMutability": "nonpayable",
      "type": "function"
    }
  ],
  "bytecode": "0x608060405260008060146101000a81548160ff02191690831515021790555034801561002a57600080fd5b506040516020806127d683398101806040528101908080519060200190929190505050336000806101000a81548173ffffffffffffffffffffffffffffffffffffffff021916908373ffffffffffffffffffffffffffffffffffffffff160217905550600073ffffffffffffffffffffffffffffffffffffffff168173ffffffffffffffffffffffffffffffffffffffff16141515156100c957600080fd5b80600960006101000a81548173ffffffffffffffffffffffffffffffffffffffff021916908373ffffffffffffffffffffffffffffffffffffffff1602179055506002600b60006101000a81548160ff0219169083600281111561012957fe5b02179055506000600460006101000a81548160ff021916908315150217905550601260ff16600a0a6301c9c38002600c60008060ff1660ff168152602001908152602001600020600001819055506006600c60008060ff1660ff16815260200190815260200160002060010181905550601260ff16600a0a622dc6c002600c60008060ff1660ff16815260200190815260200160002060020181905550601260ff16600a0a630393870002600c6000600160ff1660ff168152602001908152602001600020600001819055506007600c6000600160ff1660ff16815260200190815260200160002060010181905550601260ff16600a0a625b8d8002600c6000600160ff1660ff16815260200190815260200160002060020181905550601260ff16600a0a63055d4a8002600c6000600260ff1660ff168152602001908152602001600020600001819055506008600c6000600260ff1660ff16815260200190815260200160002060010181905550601260ff16600a0a6289544002600c6000600260ff1660ff16815260200190815260200160002060020181905550601260ff16600a0a6307270e0002600c6000600360ff1660ff168152602001908152602001600020600001819055506009600c6000600360ff1660ff16815260200190815260200160002060010181905550601260ff16600a0a62b71b0002600c6000600360ff1660ff1681526020019081526020016000206002018190555050612480806103566000396000f300608060405260043610610196576000357c0100000000000000000000000000000000000000000000000000000000900463ffffffff1680630badbde8146101a15780630cb2756d146101d25780632d1a1f28146101fd578063313ce5671461022e5780633197cbb61461025f578063380d831b1461028a5780633ccfd60b146102a15780633f4ba83a146102b857806342c07e3e146102cf578063451c2178146102fa578063457cf77a14610329578063495a27f01461038057806352be9786146103e557806353f4db011461048e578063590f40f8146104b95780635be6296b146105195780635c975abb1461054a57806378e97925146105795780638456cb59146105a45780638a973803146105bb5780638da5cb5b146105ec578063907d854a14610643578063a6f2ae3a14610674578063b5a58e6714610696578063b66a0e5d146106c3578063c040e6b8146106da578063dd34dab814610713578063de6746a51461073e578063e0e2ce0914610795578063f2fde38b146107c0578063fb133bdc14610803578063fe38579614610834575b61019e6108b7565b50005b3480156101ad57600080fd5b506101b6610a75565b604051808260ff1660ff16815260200191505060405180910390f35b3480156101de57600080fd5b506101e7610a7a565b6040518082815260200191505060405180910390f35b34801561020957600080fd5b50610212610a8b565b604051808260ff1660ff16815260200191505060405180910390f35b34801561023a57600080fd5b50610243610a90565b604051808260ff1660ff16815260200191505060405180910390f35b34801561026b57600080fd5b50610274610a95565b6040518082815260200191505060405180910390f35b34801561029657600080fd5b5061029f610a9b565b005b3480156102ad57600080fd5b506102b6610b9c565b005b3480156102c457600080fd5b506102cd610c79565b005b3480156102db57600080fd5b506102e4610d37565b6040518082815260200191505060405180910390f35b34801561030657600080fd5b5061030f610d48565b604051808215151515815260200191505060405180910390f35b34801561033557600080fd5b5061033e610d5b565b604051808273ffffffffffffffffffffffffffffffffffffffff1673ffffffffffffffffffffffffffffffffffffffff16815260200191505060405180910390f35b34801561038c57600080fd5b506103cb600480360381019080803573ffffffffffffffffffffffffffffffffffffffff16906020019092919080359060200190929190505050610d81565b604051808215151515815260200191505060405180910390f35b3480156103f157600080fd5b5061048c6004803603810190808035906020019082018035906020019080806020026020016040519081016040528093929190818152602001838360200280828437820191505050505050919291929080359060200190820180359060200190808060200260200160405190810160405280939291908181526020018383602002808284378201915050505050509192919290505050610e45565b005b34801561049a57600080fd5b506104a36112c2565b6040518082815260200191505060405180910390f35b3480156104c557600080fd5b506104e7600480360381019080803560ff1690602001909291905050506112c8565b604051808681526020018581526020018481526020018381526020018281526020019550505050505060405180910390f35b34801561052557600080fd5b5061052e6112fe565b604051808260ff1660ff16815260200191505060405180910390f35b34801561055657600080fd5b5061055f611303565b604051808215151515815260200191505060405180910390f35b34801561058557600080fd5b5061058e611316565b6040518082815260200191505060405180910390f35b3480156105b057600080fd5b506105b961131c565b005b3480156105c757600080fd5b506105d06113dc565b604051808260ff1660ff16815260200191505060405180910390f35b3480156105f857600080fd5b506106016113e1565b604051808273ffffffffffffffffffffffffffffffffffffffff1673ffffffffffffffffffffffffffffffffffffffff16815260200191505060405180910390f35b34801561064f57600080fd5b50610658611406565b604051808260ff1660ff16815260200191505060405180910390f35b61067c6108b7565b604051808215151515815260200191505060405180910390f35b3480156106a257600080fd5b506106c160048036038101908080359060200190929190505050611419565b005b3480156106cf57600080fd5b506106d861147e565b005b3480156106e657600080fd5b506106ef6115a3565b604051808260028111156106ff57fe5b60ff16815260200191505060405180910390f35b34801561071f57600080fd5b506107286115b6565b6040518082815260200191505060405180910390f35b34801561074a57600080fd5b5061077f600480360381019080803573ffffffffffffffffffffffffffffffffffffffff1690602001909291905050506115bc565b6040518082815260200191505060405180910390f35b3480156107a157600080fd5b506107aa6115d4565b6040518082815260200191505060405180910390f35b3480156107cc57600080fd5b50610801600480360381019080803573ffffffffffffffffffffffffffffffffffffffff1690602001909291905050506115e5565b005b34801561080f57600080fd5b5061081861173a565b604051808260ff1660ff16815260200191505060405180910390f35b34801561084057600080fd5b506108b5600480360381019080803573ffffffffffffffffffffffffffffffffffffffff169060200190929190803573ffffffffffffffffffffffffffffffffffffffff169060200190929190803573ffffffffffffffffffffffffffffffffffffffff16906020019092919050505061173f565b005b600080600080600080600060149054906101000a900460ff161515156108dc57600080fd5b6001600b60009054906101000a900460ff1660028111156108f957fe5b81600281111561090557fe5b14151561091157600080fd5b6000600154421015151561092457600080fd5b339050600073ffffffffffffffffffffffffffffffffffffffff168173ffffffffffffffffffffffffffffffffffffffff161415151561096357600080fd5b339650349550610983601260ff16600a0a87611be490919063ffffffff16565b945061099a60055486611bfa90919063ffffffff16565b93506109a68785611c32565b9250600660009054906101000a900473ffffffffffffffffffffffffffffffffffffffff1673ffffffffffffffffffffffffffffffffffffffff166108fc879081150290604051600060405180830381858888f19350505050158015610a10573d6000803e3d6000fd5b503373ffffffffffffffffffffffffffffffffffffffff167fcd60aa75dea3072fbc07ae6d7d856b5dc5f4eee88854f5b4abf7b680ef8bc50f8785604051808381526020018281526020019250505060405180910390a2600197505050505050505090565b600481565b601260ff16600a0a6305f5e1000281565b600081565b601281565b60035481565b6000809054906101000a900473ffffffffffffffffffffffffffffffffffffffff1673ffffffffffffffffffffffffffffffffffffffff163373ffffffffffffffffffffffffffffffffffffffff16141515610af657600080fd5b6001600b60009054906101000a900460ff166002811115610b1357fe5b816002811115610b1f57fe5b141515610b2b57600080fd5b426003819055506002600b60006101000a81548160ff02191690836002811115610b5157fe5b02179055507fce4010416b0dec196298b584ceebdd43ecf89e6c03007517c3a7f4403db6c212600354600a54604051808381526020018281526020019250505060405180910390a150565b6000809054906101000a900473ffffffffffffffffffffffffffffffffffffffff1673ffffffffffffffffffffffffffffffffffffffff163373ffffffffffffffffffffffffffffffffffffffff16141515610bf757600080fd5b600660009054906101000a900473ffffffffffffffffffffffffffffffffffffffff1673ffffffffffffffffffffffffffffffffffffffff166108fc3073ffffffffffffffffffffffffffffffffffffffff16319081150290604051600060405180830381858888f19350505050158015610c76573d6000803e3d6000fd5b50565b6000809054906101000a900473ffffffffffffffffffffffffffffffffffffffff1673ffffffffffffffffffffffffffffffffffffffff163373ffffffffffffffffffffffffffffffffffffffff16141515610cd457600080fd5b600060149054906101000a900460ff161515610cef57600080fd5b60008060146101000a81548160ff0219169083151502179055507f7805862f689e2f13df9f062ff482ad3ad112aca9e0847911ed832e158c525b3360405160405180910390a1565b601260ff16600a0a6305f5e1000281565b600460009054906101000a900460ff1681565b600960009054906101000a900473ffffffffffffffffffffffffffffffffffffffff1681565b60008060009054906101000a900473ffffffffffffffffffffffffffffffffffffffff1673ffffffffffffffffffffffffffffffffffffffff163373ffffffffffffffffffffffffffffffffffffffff16141515610dde57600080fd5b600060149054906101000a900460ff16151515610dfa57600080fd5b6001600b60009054906101000a900460ff166002811115610e1757fe5b816002811115610e2357fe5b141515610e2f57600080fd5b610e398484611c32565b50600191505092915050565b6000806000809054906101000a900473ffffffffffffffffffffffffffffffffffffffff1673ffffffffffffffffffffffffffffffffffffffff163373ffffffffffffffffffffffffffffffffffffffff16141515610ea357600080fd5b6000600b60009054906101000a900460ff166002811115610ec057fe5b816002811115610ecc57fe5b141515610ed857600080fd5b83518551141515610ee857600080fd5b60009250600091505b83518210156110d957610f248483815181101515610f0b57fe5b906020019060200201518461240890919063ffffffff16565b9250600073ffffffffffffffffffffffffffffffffffffffff168583815181101515610f4c57fe5b9060200190602002015173ffffffffffffffffffffffffffffffffffffffff1614158015610fdf5750600660009054906101000a900473ffffffffffffffffffffffffffffffffffffffff1673ffffffffffffffffffffffffffffffffffffffff168583815181101515610fbc57fe5b9060200190602002015173ffffffffffffffffffffffffffffffffffffffff1614155b80156110505750600760009054906101000a900473ffffffffffffffffffffffffffffffffffffffff1673ffffffffffffffffffffffffffffffffffffffff16858381518110151561102d57fe5b9060200190602002015173ffffffffffffffffffffffffffffffffffffffff1614155b80156110c15750600860009054906101000a900473ffffffffffffffffffffffffffffffffffffffff1673ffffffffffffffffffffffffffffffffffffffff16858381518110151561109e57fe5b9060200190602002015173ffffffffffffffffffffffffffffffffffffffff1614155b15156110cc57600080fd5b8180600101925050610ef1565b601260ff16600a0a6305f5e1000283111515156110f557600080fd5b600091505b84518210156112bb57838281518110151561111157fe5b90602001906020020151600d6000878581518110151561112d57fe5b9060200190602002015173ffffffffffffffffffffffffffffffffffffffff1673ffffffffffffffffffffffffffffffffffffffff16815260200190815260200160002081905550600960009054906101000a900473ffffffffffffffffffffffffffffffffffffffff1673ffffffffffffffffffffffffffffffffffffffff166340c10f1986848151811015156111c157fe5b9060200190602002015186858151811015156111d957fe5b906020019060200201516040518363ffffffff167c0100000000000000000000000000000000000000000000000000000000028152600401808373ffffffffffffffffffffffffffffffffffffffff1673ffffffffffffffffffffffffffffffffffffffff16815260200182815260200192505050602060405180830381600087803b15801561126857600080fd5b505af115801561127c573d6000803e3d6000fd5b505050506040513d602081101561129257600080fd5b810190808051906020019092919050505015156112ae57600080fd5b81806001019250506110fa565b5050505050565b600a5481565b600c6020528060005260406000206000915090508060000154908060010154908060020154908060030154908060040154905085565b600181565b600060149054906101000a900460ff1681565b60015481565b6000809054906101000a900473ffffffffffffffffffffffffffffffffffffffff1673ffffffffffffffffffffffffffffffffffffffff163373ffffffffffffffffffffffffffffffffffffffff1614151561137757600080fd5b600060149054906101000a900460ff1615151561139357600080fd5b6001600060146101000a81548160ff0219169083151502179055507f6985a02210a168e66602d3235cb6db0e70f92b3ba4d376a33c0f3d9434bff62560405160405180910390a1565b600381565b6000809054906101000a900473ffffffffffffffffffffffffffffffffffffffff1681565b600b60019054906101000a900460ff1681565b6000809054906101000a900473ffffffffffffffffffffffffffffffffffffffff1673ffffffffffffffffffffffffffffffffffffffff163373ffffffffffffffffffffffffffffffffffffffff1614151561147457600080fd5b8060058190555050565b6000809054906101000a900473ffffffffffffffffffffffffffffffffffffffff1673ffffffffffffffffffffffffffffffffffffffff163373ffffffffffffffffffffffffffffffffffffffff161415156114d957600080fd5b6000600b60009054906101000a900460ff1660028111156114f657fe5b81600281111561150257fe5b14151561150e57600080fd5b60006005541015151561152057600080fd5b6001600b60006101000a81548160ff0219169083600281111561153f57fe5b02179055506000600b60016101000a81548160ff021916908360ff160217905550426001819055507fa78c547613f6306e7a70d1bd161c18a496cae1eeb8d4f9e58b60d69ad72ddf586001546040518082815260200191505060405180910390a150565b600b60009054906101000a900460ff1681565b60025481565b600d6020528060005260406000206000915090505481565b601260ff16600a0a631dcd65000281565b6000809054906101000a900473ffffffffffffffffffffffffffffffffffffffff1673ffffffffffffffffffffffffffffffffffffffff163373ffffffffffffffffffffffffffffffffffffffff1614151561164057600080fd5b600073ffffffffffffffffffffffffffffffffffffffff168173ffffffffffffffffffffffffffffffffffffffff161415151561167c57600080fd5b8073ffffffffffffffffffffffffffffffffffffffff166000809054906101000a900473ffffffffffffffffffffffffffffffffffffffff1673ffffffffffffffffffffffffffffffffffffffff167f8be0079c531659141344cd1fd0a4f28419497f9722a3daafe3b4186f6b6457e060405160405180910390a3806000806101000a81548173ffffffffffffffffffffffffffffffffffffffff021916908373ffffffffffffffffffffffffffffffffffffffff16021790555050565b600281565b6000809054906101000a900473ffffffffffffffffffffffffffffffffffffffff1673ffffffffffffffffffffffffffffffffffffffff163373ffffffffffffffffffffffffffffffffffffffff1614151561179a57600080fd5b6002600b60009054906101000a900460ff1660028111156117b757fe5b8160028111156117c357fe5b1415156117cf57600080fd5b600073ffffffffffffffffffffffffffffffffffffffff168473ffffffffffffffffffffffffffffffffffffffff161415151561180b57600080fd5b600073ffffffffffffffffffffffffffffffffffffffff168373ffffffffffffffffffffffffffffffffffffffff161415151561184757600080fd5b600073ffffffffffffffffffffffffffffffffffffffff168273ffffffffffffffffffffffffffffffffffffffff161415151561188357600080fd5b83600660006101000a81548173ffffffffffffffffffffffffffffffffffffffff021916908373ffffffffffffffffffffffffffffffffffffffff16021790555082600760006101000a81548173ffffffffffffffffffffffffffffffffffffffff021916908373ffffffffffffffffffffffffffffffffffffffff16021790555081600860006101000a81548173ffffffffffffffffffffffffffffffffffffffff021916908373ffffffffffffffffffffffffffffffffffffffff160217905550600960009054906101000a900473ffffffffffffffffffffffffffffffffffffffff1673ffffffffffffffffffffffffffffffffffffffff166340c10f19600760009054906101000a900473ffffffffffffffffffffffffffffffffffffffff16601260ff16600a0a631dcd6500026040518363ffffffff167c0100000000000000000000000000000000000000000000000000000000028152600401808373ffffffffffffffffffffffffffffffffffffffff1673ffffffffffffffffffffffffffffffffffffffff16815260200182815260200192505050602060405180830381600087803b158015611a3a57600080fd5b505af1158015611a4e573d6000803e3d6000fd5b505050506040513d6020811015611a6457600080fd5b81019080805190602001909291905050501515611a8057600080fd5b600960009054906101000a900473ffffffffffffffffffffffffffffffffffffffff1673ffffffffffffffffffffffffffffffffffffffff166340c10f19600860009054906101000a900473ffffffffffffffffffffffffffffffffffffffff16601260ff16600a0a6305f5e100026040518363ffffffff167c0100000000000000000000000000000000000000000000000000000000028152600401808373ffffffffffffffffffffffffffffffffffffffff1673ffffffffffffffffffffffffffffffffffffffff16815260200182815260200192505050602060405180830381600087803b158015611b7457600080fd5b505af1158015611b88573d6000803e3d6000fd5b505050506040513d6020811015611b9e57600080fd5b81019080805190602001909291905050501515611bba57600080fd5b6000600b60006101000a81548160ff02191690836002811115611bd957fe5b021790555050505050565b60008183811515611bf157fe5b04905092915050565b600080831415611c0d5760009050611c2c565b8183029050818382811515611c1e57fe5b04141515611c2857fe5b8090505b92915050565b6000806000806000611c42612424565b6000601260ff16600a0a611c8a600c6000600b60019054906101000a900460ff1660ff1660ff168152602001908152602001600020600101548a611be490919063ffffffff16565b029550600c6000600b60019054906101000a900460ff1660ff1660ff16815260200190815260200160002060030154600c6000600b60019054906101000a900460ff1660ff1660ff16815260200190815260200160002060000154039450600092508585101515611cfd57859350611d06565b84935084860392505b600960009054906101000a900473ffffffffffffffffffffffffffffffffffffffff1673ffffffffffffffffffffffffffffffffffffffff166340c10f198a866040518363ffffffff167c0100000000000000000000000000000000000000000000000000000000028152600401808373ffffffffffffffffffffffffffffffffffffffff1673ffffffffffffffffffffffffffffffffffffffff16815260200182815260200192505050602060405180830381600087803b158015611dcb57600080fd5b505af1158015611ddf573d6000803e3d6000fd5b505050506040513d6020811015611df557600080fd5b81019080805190602001909291905050501515611e1157600080fd5b6000831115611f7c57600960009054906101000a900473ffffffffffffffffffffffffffffffffffffffff1673ffffffffffffffffffffffffffffffffffffffff166323b872dd600760009054906101000a900473ffffffffffffffffffffffffffffffffffffffff168b866040518463ffffffff167c0100000000000000000000000000000000000000000000000000000000028152600401808473ffffffffffffffffffffffffffffffffffffffff1673ffffffffffffffffffffffffffffffffffffffff1681526020018373ffffffffffffffffffffffffffffffffffffffff1673ffffffffffffffffffffffffffffffffffffffff1681526020018281526020019350505050602060405180830381600087803b158015611f3557600080fd5b505af1158015611f49573d6000803e3d6000fd5b505050506040513d6020811015611f5f57600080fd5b81019080805190602001909291905050501515611f7b57600080fd5b5b611fbc838501600c6000600b60019054906101000a900460ff1660ff1660ff1681526020019081526020016000206003015461240890919063ffffffff16565b600c6000600b60019054906101000a900460ff1660ff1660ff1681526020019081526020016000206003018190555061202988600c6000600b60019054906101000a900460ff1660ff1660ff1681526020019081526020016000206004015461240890919063ffffffff16565b600c6000600b60019054906101000a900460ff1660ff1660ff1681526020019081526020016000206004018190555060408051908101604052808a73ffffffffffffffffffffffffffffffffffffffff168152602001878152509150600090505b600c6000600b60019054906101000a900460ff1660ff1660ff1681526020019081526020016000206005018054905081101561221c57816000015173ffffffffffffffffffffffffffffffffffffffff16600c6000600b60019054906101000a900460ff1660ff1660ff1681526020019081526020016000206005018281548110151561211357fe5b906000526020600020906002020160000160009054906101000a900473ffffffffffffffffffffffffffffffffffffffff1673ffffffffffffffffffffffffffffffffffffffff16141561220f576121bd86600c6000600b60019054906101000a900460ff1660ff1660ff1681526020019081526020016000206005018381548110151561219d57fe5b90600052602060002090600202016001015461240890919063ffffffff16565b600c6000600b60019054906101000a900460ff1660ff1660ff168152602001908152602001600020600501828154811015156121f557fe5b90600052602060002090600202016001018190555061221c565b808060010191505061208a565b600c6000600b60019054906101000a900460ff1660ff1660ff168152602001908152602001600020600501805490508114156122fe57600c6000600b60019054906101000a900460ff1660ff1660ff168152602001908152602001600020600501829080600181540180825580915050906001820390600052602060002090600202016000909192909190915060008201518160000160006101000a81548173ffffffffffffffffffffffffffffffffffffffff021916908373ffffffffffffffffffffffffffffffffffffffff160217905550602082015181600101555050505b600c6000600b60019054906101000a900460ff1660ff1660ff16815260200190815260200160002060000154600c6000600b60019054906101000a900460ff1660ff1660ff168152602001908152602001600020600301541015156123f957600b600181819054906101000a900460ff168092919060010191906101000a81548160ff021916908360ff16021790555050600360ff16600b60019054906101000a900460ff1660ff1614156123b557426002819055505b600460ff16600b60019054906101000a900460ff1660ff1614156123f8576002600b60006101000a81548160ff021916908360028111156123f257fe5b02179055505b5b85965050505050505092915050565b6000818301905082811015151561241b57fe5b80905092915050565b6040805190810160405280600073ffffffffffffffffffffffffffffffffffffffff1681526020016000815250905600a165627a7a7230582016c67c65322e13e03fa108837dcd52f22bc423bc35547ef8db2b517dcc5986760029",
  "source": "pragma solidity ^0.4.20;\n\nimport \"./CouponToken.sol\";\nimport \"openzeppelin-solidity/contracts/math/SafeMath.sol\";\nimport \"openzeppelin-solidity/contracts/lifecycle/Pausable.sol\";\n\ncontract CouponTokenSale is Pausable {\n    using SafeMath for uint256;\n\n    // Start time of Sale\n    uint256 public startTime;\n\n    // Start time of the Sale-lot 4\n    uint256 public startTimeOfSaleLot4;\n\n    // End time of Sale\n    uint256 public endTime;\n\n    // Sales ended \n    bool public salesEnded;\n\n    uint256 private rateEth2Cents;\n\n    // Address to collect fund\n    address private fundAddr;\n    \n    // Address for treasury\n    address private treasuryAddr;\n\n    // Address of Contigency\n    address private contigencyAddr;\n\n    // Coupon Token contract address\n    CouponToken public couponToken;\n\n    // Amount of raised in Wei (1 ether)\n    uint256 public totalWeiRaised;\n\n    /*\n     *\n     * C O N S T A N T S\n     *\n    */\n    uint8 public constant decimals = 18;\n    \n    // Maximum CAP for founders, 100 million\n    uint256 public constant MAX_CAP_FOR_FOUNDERS = 100000000 * (10 ** uint256(decimals)); // 100 million\n\n    // Maximum CAP for treasury, 500 million\n    uint256 public constant MAX_CAP_FOR_TREASURY = 500000000 * (10 ** uint256(decimals)); // 500 million\n\n    // Maximum CAP for contigency, 100 million\n    uint256 public constant MAX_CAP_FOR_CONTIGENCY = 100000000 * (10 ** uint256(decimals)); // 100 million\n\n    // Total token Sales 300 million, which will be sold in 4 lots, as like below\n    // Maximum CAP for each lot sales \n    uint256 constant MAX_CAP_FOR_LOT1 =  30000000 * (10 ** uint256(decimals)); // 30 million\n    uint256 constant MAX_CAP_FOR_LOT2 =  60000000 * (10 ** uint256(decimals)); // 60 million\n    uint256 constant MAX_CAP_FOR_LOT3 =  90000000 * (10 ** uint256(decimals)); // 90 million\n    uint256 constant MAX_CAP_FOR_LOT4 = 120000000 * (10 ** uint256(decimals)); // 120 million\n\n    uint256 constant RATE_FOR_LOT1 = 6;  // USD $0.06 Cents\n    uint256 constant RATE_FOR_LOT2 = 7;  // USD $0.07 Cents\n    uint256 constant RATE_FOR_LOT3 = 8;  // USD $0.08 Cents\n    uint256 constant RATE_FOR_LOT4 = 9;  // USD $0.09 Cents\n\n    // Total Pool Bonus 30 million\n    uint256 constant POOL_BONUS_LOT1 =  3000000 * (10 ** uint256(decimals)); // 3 million\n    uint256 constant POOL_BONUS_LOT2 =  6000000 * (10 ** uint256(decimals)); // 6 million\n    uint256 constant POOL_BONUS_LOT3 =  9000000 * (10 ** uint256(decimals)); // 9 million\n    uint256 constant POOL_BONUS_LOT4 = 12000000 * (10 ** uint256(decimals)); // 12 million\n\n    // Constants for lot sales related\n    uint8 constant public MAX_SALE_LOTS = 4;\n    uint8 constant public SALE_LOT1 = 0;\n    uint8 constant public SALE_LOT2 = 1;\n    uint8 constant public SALE_LOT3 = 2;\n    uint8 constant public SALE_LOT4 = 3;\n\n    uint256 constant POOL_BONUS_ELIGIBLE = 50000 * (10 ** uint256(decimals)); // 50 thousand\n\n    // Max.Cap for Campaigns, which are all taken from Treasury\n    uint256 constant MAX_CAP_AIRDROP_PROGRAM = 25000000 * (10 ** uint256(decimals)); // 25 million\n    uint256 constant MAX_CAP_BOUNTY_PROGRAM =  15000000 * (10 ** uint256(decimals)); // 15 million\n    uint256 constant MAX_CAP_REFERRAL_PROGRAM =  15000000 * (10 ** uint256(decimals)); // 15 million\n    uint256 constant MAX_CAP_COUPON_PROGRAM =  15000000 * (10 ** uint256(decimals)); // 15 million\n        \n    // There are three stages\n    enum Stages {\n        Setup,\n        Started,\n        Ended\n    }\n\n    // Current Stage for the Sale\n    Stages public stage;\n\n    \n    // The current lot of the sale(1, 2, 3, 4)\n    uint8 public currLot;\n\n    struct BuyerInfoForPoolBonus {\n        address addr;\n        uint256 noOfTokensBought;\n    }\n\n    // Information related to lots\n    struct LotInfos {\n        uint256 totalTokens;\n        uint256 rateInCents;\n        uint256 poolBonus;\n        uint256 soldTokens;\n        uint256 totalCentsRaised;\n        BuyerInfoForPoolBonus[] buyerInfoForPoolBonus;\n    }\n\n    // List of Lots information\n    mapping(uint8 => LotInfos) public lotsInfo;\n\n\n     // List for Founders\n    mapping(address => uint256) public founders;\n\n    /*\n     * Events\n     */\n      /*\n     * Event for sale start logging\n     *\n     * @param startTime: Start date of sale\n     * @param endTime: End date of sale\n     *\n     */\n    event SaleStarted(uint256 startTime);\n\n    /*\n     * Event for sale end logging\n     *\n     * @param endTime: End date of sale\n     * @param totalWeiRaised: Total amount of raised in Wei after sale ended\n     * \n     */\n    event SaleEnded(uint256 endTime, uint256 totalWeiRaised);\n\n    /*\n     * Event for token purchase\n     *\n     * @param purchaser: Who paid for the tokens\n     * @param value: Amount in Wei paid for purchase\n     * @param amount: Amount of tokens purchased\n     */\n    event TokenPurchase(address indexed purchaser, uint256 value, uint256 amount);\n\n    /*\n     * Modifiers\n     */\n    modifier atStage(Stages expectedStage) {\n        require(expectedStage == stage);\n        _;\n    }\n\n    modifier onlyValidPurchase() {\n        require(now >= startTime);\n\n        address purchaser = msg.sender;\n\n        require(purchaser != address(0));\n\n        _;\n    }\n\n    /*\n     * Constructor\n     */\n    constructor(address couponTokenAddress) public {\n        \n        require(couponTokenAddress != address(0));\n\n        // Get the address of couponToken and store it\n        couponToken = CouponToken(couponTokenAddress);\n\n        // Initially set the state as Ended\n        stage = Stages.Ended;\n\n        // Initialise the saleEnded with false\n        salesEnded = false;\n\n        // Fill Lots Information to structure\n        lotsInfo[SALE_LOT1].totalTokens = MAX_CAP_FOR_LOT1;\n        lotsInfo[SALE_LOT1].rateInCents = RATE_FOR_LOT1;\n        lotsInfo[SALE_LOT1].poolBonus = POOL_BONUS_LOT1;\n\n        lotsInfo[SALE_LOT2].totalTokens = MAX_CAP_FOR_LOT2;\n        lotsInfo[SALE_LOT2].rateInCents = RATE_FOR_LOT2;\n        lotsInfo[SALE_LOT2].poolBonus = POOL_BONUS_LOT2;\n\n        lotsInfo[SALE_LOT3].totalTokens = MAX_CAP_FOR_LOT3;\n        lotsInfo[SALE_LOT3].rateInCents = RATE_FOR_LOT3;\n        lotsInfo[SALE_LOT3].poolBonus = POOL_BONUS_LOT3;\n\n        lotsInfo[SALE_LOT4].totalTokens = MAX_CAP_FOR_LOT4;\n        lotsInfo[SALE_LOT4].rateInCents = RATE_FOR_LOT4;\n        lotsInfo[SALE_LOT4].poolBonus = POOL_BONUS_LOT4;\n\n    }\n\n    /*\n     * Fallback function to buy CCT tokens\n     */\n    function () public payable {\n        buy();\n    }\n\n    /*\n     * Withdraw ethers to fund address\n     */\n    function withdraw() external onlyOwner {\n        fundAddr.transfer(address(this).balance);\n    }\n\n    /*\n     * SetupContract with addresses\n     */\n    function setupContract(address _fundAddr, address _treasuryAddr, address _contigencyAddr) \n        external\n        onlyOwner\n        atStage(Stages.Ended) {\n\n        require(_fundAddr != address(0));\n        require(_treasuryAddr != address(0));\n        require(_contigencyAddr != address(0));\n\n        \n        // Assign address\n        fundAddr = _fundAddr;\n        treasuryAddr = _treasuryAddr;\n        contigencyAddr = _contigencyAddr;\n\n        // Allocate tokens for treasury\n        if (!couponToken.mint(treasuryAddr, MAX_CAP_FOR_TREASURY)) {\n            revert();\n        }\n\n        // Allocate tokens for contigency\n        if (!couponToken.mint(contigencyAddr, MAX_CAP_FOR_CONTIGENCY)) {\n            revert();\n        }\n\n        // Change the Stage as Setup\n        stage = Stages.Setup;\n\n    }\n\n    /*\n     *\n     *\n    */\n    function setEth2Cents(uint256 rate) \n        public\n        onlyOwner {\n\n        rateEth2Cents = rate;\n\n    }\n\n    /*\n     * Allocation to Founders\n     *\n     */\n    function addFounders(address[] Users, uint256[] Tokens)\n        public \n        onlyOwner \n        atStage(Stages.Setup) {\n\n        // Both array length should be same\n        require(Users.length == Tokens.length);\n\n        // Check the total amount should not cross the MAX_CAP_FOR_FOUNDERS\n        uint256 totalFounderAllocation = 0;\n        for(uint i = 0; i < Tokens.length; i++) { \n            totalFounderAllocation = totalFounderAllocation.add(Tokens[i]);\n\n            // Founders address should validate following\n            require(Users[i] != address(0) && Users[i] != fundAddr && Users[i] != treasuryAddr && Users[i] != contigencyAddr);\n        }\n        \n        // Total tokens should be more than CAP\n        require(totalFounderAllocation <= MAX_CAP_FOR_FOUNDERS);\n        \n        // Allocation for founders \n        for(i = 0; i < Users.length; i++) { \n            // Assign tokens\n            founders[Users[i]] = Tokens[i];\n\n            // Mint the required token\n            if (!couponToken.mint(Users[i], Tokens[i])) {\n                revert();\n            }\n        }\n    }\n\n\n    /*\n     * Start sale\n     */\n    function startSale()\n        external\n        onlyOwner\n        atStage(Stages.Setup)\n    {\n        require(rateEth2Cents >= 0);\n        \n        stage = Stages.Started;\n        currLot = SALE_LOT1;\n        startTime = now;\n\n        // Fire the event\n        emit SaleStarted(startTime);\n    }\n\n     /*\n     * End sale\n     */\n    function endSale() external onlyOwner atStage(Stages.Started) {\n        endTime = now;\n        stage = Stages.Ended;\n\n        emit SaleEnded(endTime, totalWeiRaised);\n    }\n\n    /*\n     * Function: buy()\n     */\n\n    function buy()\n        public \n        payable\n        whenNotPaused\n        atStage(Stages.Started)\n        onlyValidPurchase()\n        returns (bool) {\n\n        address purchaser = msg.sender;\n        uint256 contributionInWei = msg.value;\n        uint256 contributioninEth = contributionInWei.div(10 ** uint256(decimals));\n        uint256 inCents = contributioninEth.mul(rateEth2Cents);\n\n        uint256 totalTokens = purchase(purchaser, inCents);\n\n        // Transfer contributions to fund address\n        fundAddr.transfer(contributionInWei);\n        emit TokenPurchase(msg.sender, contributionInWei, totalTokens);\n\n        return true;\n    }\n\n    function buyFiat(address toUser, uint256 inCents) \n        public\n        onlyOwner\n        whenNotPaused\n        atStage(Stages.Started)\n        returns (bool) {\n\n        // Call purchase()    \n        purchase(toUser, inCents);\n\n        return true;\n    }\n\n    function purchase(address purchaser, uint256 inCents)\n        internal \n        returns (uint256) {\n        \n        // Find no.of tokens to be purchased\n        uint256 totalTokens = inCents.div(lotsInfo[currLot].rateInCents) * (10 ** uint256(decimals));\n        \n        // Check sufficient tokens available in this lot\n        uint256 availableTokens = lotsInfo[currLot].totalTokens - lotsInfo[currLot].soldTokens;\n\n        uint256 purchaseToken;\n        uint256 needToTakeFromTreasury = 0;\n        \n\n        // See if required token available in current lot, \n        // if not transfer the balance token from Treasury wallet\n        if(availableTokens >= totalTokens) {\n            purchaseToken = totalTokens;\n        } else {\n            purchaseToken = availableTokens;\n            needToTakeFromTreasury = totalTokens - availableTokens;\n        }\n\n        // Mint the required tokes\n        if (!couponToken.mint(purchaser, purchaseToken)) {\n            revert();\n        }\n\n        // Transfer from Treasury if needed\n        if(needToTakeFromTreasury > 0) {\n            if (!couponToken.transferFrom(treasuryAddr, purchaser, needToTakeFromTreasury)) {\n                revert();\n            }\n        }\n            \n        // Add it to Lot Information\n        lotsInfo[currLot].soldTokens = lotsInfo[currLot].soldTokens.add(purchaseToken + needToTakeFromTreasury);\n        lotsInfo[currLot].totalCentsRaised = lotsInfo[currLot].totalCentsRaised.add(inCents);\n\n        BuyerInfoForPoolBonus memory buyer = BuyerInfoForPoolBonus(purchaser, totalTokens);\n        \n        // See the buyer already in list\n        for(uint i = 0; i < lotsInfo[currLot].buyerInfoForPoolBonus.length; i++) {\n            if(lotsInfo[currLot].buyerInfoForPoolBonus[i].addr == buyer.addr) {\n                lotsInfo[currLot].buyerInfoForPoolBonus[i].noOfTokensBought = lotsInfo[currLot].buyerInfoForPoolBonus[i].noOfTokensBought.add(totalTokens);\n                break; // break the for-loop\n            }\n        }\n        \n        if(i == lotsInfo[currLot].buyerInfoForPoolBonus.length) {\n            // Item not found in the array, so add it\n            lotsInfo[currLot].buyerInfoForPoolBonus.push(buyer);\n        }\n        \n\n        // Check if the lot sale is completed\n        if(lotsInfo[currLot].soldTokens >= lotsInfo[currLot].totalTokens) {\n            // Move to next lot\n            currLot++;\n\n            // See now it is in Lot 4\n            if(currLot == SALE_LOT4)\n                startTimeOfSaleLot4 = now;\n\n            if(currLot == MAX_SALE_LOTS) {\n                // All sale lots completed, so end the sale\n                stage = Stages.Ended;\n            } \n        }\n\n        return totalTokens;\n    }\n\n    // function TestFunc(uint256 inWei) public view\n    //     returns (uint256) {\n    //     uint256 contributionInWei = inWei;\n    //     uint256 contributioninEth = contributionInWei.div(10 ** uint256(decimals));\n    //     uint256 inCents = contributioninEth.mul(rateEth2Cents);\n    //     uint256 noOfTokens = inCents.div(lotsInfo[uint8(currLot)].rateInCents);\n\n    //     return noOfTokens;\n    // }\n\n    // function TestSign() public pure returns (int8) {\n    //     uint8 a = 1;\n    //     uint8 b = 2;\n    //     return int8(a-b);\n    // }\n    \n} //** End of Contract",
  "sourcePath": "/Users/kris/workspace/bchain/ccttoken/coupon-chain-ico/ico/contracts/CouponTokenSale.sol",
  "compiler": {
    "name": "solc",
    "version": "0.4.24+commit.e67f0147.Emscripten.clang"
  },
  "schemaVersion": "2.0.0",
  "updatedAt": "2018-07-03T14:46:34.694Z"
}